{
  "contractName": "Cert",
  "abi": [
    {
      "inputs": [
        {
          "internalType": "string",
          "name": "",
          "type": "string"
        }
      ],
      "name": "hashvalue",
      "outputs": [
        {
          "internalType": "bool",
          "name": "",
          "type": "bool"
        }
      ],
      "stateMutability": "view",
      "type": "function",
      "constant": true
    },
    {
      "inputs": [
        {
          "internalType": "string",
          "name": "_certHash",
          "type": "string"
        },
        {
          "internalType": "string",
          "name": "_name",
          "type": "string"
        },
        {
          "internalType": "string",
          "name": "_roll",
          "type": "string"
        },
        {
          "internalType": "string",
          "name": "_email",
          "type": "string"
        }
      ],
      "name": "set",
      "outputs": [],
      "stateMutability": "nonpayable",
      "type": "function"
    },
    {
      "inputs": [
        {
          "internalType": "string",
          "name": "_certHash",
          "type": "string"
        }
      ],
      "name": "get",
      "outputs": [
        {
          "internalType": "bool",
          "name": "",
          "type": "bool"
        }
      ],
      "stateMutability": "view",
      "type": "function",
      "constant": true
    }
  ],
  "bytecode": "0x608060405234801561001057600080fd5b50610811806100206000396000f3fe608060405234801561001057600080fd5b50600436106100415760003560e01c80636225587714610046578063693ec85e14610076578063f60886b5146100a6575b600080fd5b610060600480360381019061005b9190610315565b6100c2565b60405161006d9190610379565b60405180910390f35b610090600480360381019061008b9190610315565b6100f8565b60405161009d9190610379565b60405180910390f35b6100c060048036038101906100bb9190610394565b61013e565b005b6004818051602081018201805184825260208301602085012081835280955050505050506000915054906101000a900460ff1681565b600060048260405161010a91906104dc565b908152602001604051809103902060009054906101000a900460ff16156101345760019050610139565b600090505b919050565b836000908161014d9190610709565b50826001908161015d9190610709565b50816002908161016d9190610709565b50806003908161017d9190610709565b50600160048560405161019091906104dc565b908152602001604051809103902060006101000a81548160ff02191690831515021790555050505050565b6000604051905090565b600080fd5b600080fd5b600080fd5b600080fd5b6000601f19601f8301169050919050565b7f4e487b7100000000000000000000000000000000000000000000000000000000600052604160045260246000fd5b610222826101d9565b810181811067ffffffffffffffff82111715610241576102406101ea565b5b80604052505050565b60006102546101bb565b90506102608282610219565b919050565b600067ffffffffffffffff8211156102805761027f6101ea565b5b610289826101d9565b9050602081019050919050565b82818337600083830152505050565b60006102b86102b384610265565b61024a565b9050828152602081018484840111156102d4576102d36101d4565b5b6102df848285610296565b509392505050565b600082601f8301126102fc576102fb6101cf565b5b813561030c8482602086016102a5565b91505092915050565b60006020828403121561032b5761032a6101c5565b5b600082013567ffffffffffffffff811115610349576103486101ca565b5b610355848285016102e7565b91505092915050565b60008115159050919050565b6103738161035e565b82525050565b600060208201905061038e600083018461036a565b92915050565b600080600080608085870312156103ae576103ad6101c5565b5b600085013567ffffffffffffffff8111156103cc576103cb6101ca565b5b6103d8878288016102e7565b945050602085013567ffffffffffffffff8111156103f9576103f86101ca565b5b610405878288016102e7565b935050604085013567ffffffffffffffff811115610426576104256101ca565b5b610432878288016102e7565b925050606085013567ffffffffffffffff811115610453576104526101ca565b5b61045f878288016102e7565b91505092959194509250565b600081519050919050565b600081905092915050565b60005b8381101561049f578082015181840152602081019050610484565b60008484015250505050565b60006104b68261046b565b6104c08185610476565b93506104d0818560208601610481565b80840191505092915050565b60006104e882846104ab565b915081905092915050565b7f4e487b7100000000000000000000000000000000000000000000000000000000600052602260045260246000fd5b6000600282049050600182168061053a57607f821691505b60208210810361054d5761054c6104f3565b5b50919050565b60008190508160005260206000209050919050565b60006020601f8301049050919050565b600082821b905092915050565b6000600883026105b57fffffffffffffffffffffffffffffffffffffffffffffffffffffffffffffffff82610578565b6105bf8683610578565b95508019841693508086168417925050509392505050565b6000819050919050565b6000819050919050565b60006106066106016105fc846105d7565b6105e1565b6105d7565b9050919050565b6000819050919050565b610620836105eb565b61063461062c8261060d565b848454610585565b825550505050565b600090565b61064961063c565b610654818484610617565b505050565b5b818110156106785761066d600082610641565b60018101905061065a565b5050565b601f8211156106bd5761068e81610553565b61069784610568565b810160208510156106a6578190505b6106ba6106b285610568565b830182610659565b50505b505050565b600082821c905092915050565b60006106e0600019846008026106c2565b1980831691505092915050565b60006106f983836106cf565b9150826002028217905092915050565b6107128261046b565b67ffffffffffffffff81111561072b5761072a6101ea565b5b6107358254610522565b61074082828561067c565b600060209050601f8311600181146107735760008415610761578287015190505b61076b85826106ed565b8655506107d3565b601f19841661078186610553565b60005b828110156107a957848901518255600182019150602085019450602081019050610784565b868310156107c657848901516107c2601f8916826106cf565b8355505b6001600288020188555050505b50505050505056fea26469706673582212204af261232cede24b85f9c3292d4932ed52dc917f919f58e54bacaa25f56abdc764736f6c63430008110033",
  "immutableReferences": {},
  "source": "pragma solidity 0.8.17;\r\n\r\ncontract Cert{\r\n    // smart contract code goes here\r\n    string certHash;\r\n    string name;\r\n    string roll;\r\n    string email;\r\n\r\n    mapping (string => bool) public hashvalue;\r\n\r\n    // write function\r\n    function set(string memory _certHash,string memory _name, string memory _roll, string memory _email) public {\r\n        certHash = _certHash;\r\n        name=_name;\r\n        roll =_roll;\r\n        email=_email;\r\n        hashvalue[_certHash]=true;\r\n    }\r\n     //Read function\r\n    function get(string memory _certHash) public view returns(bool){\r\n        \r\n        if(hashvalue[_certHash]){\r\n            return true;\r\n        }\r\n\r\n        return false;\r\n    }\r\n}",
  "sourcePath": "C:\\Users\\Ayush\\Desktop\\Project\\Blockchain\\e_certificate\\contracts\\Cert.sol",
  "compiler": {
    "name": "solc",
    "version": "0.8.17+commit.8df45f5f.Emscripten.clang"
  },
  "schemaVersion": "3.4.10",
  "updatedAt": "2022-11-25T20:39:33.868Z",
  "networkType": "ethereum",
  "devdoc": {
    "kind": "dev",
    "methods": {},
    "version": 1
  },
  "userdoc": {
    "kind": "user",
    "methods": {},
    "version": 1
  }
}