{
  "contractName": "Cert",
  "abi": [
    {
      "inputs": [
        {
          "internalType": "string",
          "name": "firstName",
          "type": "string"
        },
        {
          "internalType": "string",
          "name": "lastName",
          "type": "string"
        },
        {
          "internalType": "uint256",
          "name": "yearOfPassing",
          "type": "uint256"
        },
        {
          "internalType": "uint256",
          "name": "gpa",
          "type": "uint256"
        },
        {
          "internalType": "string",
          "name": "rollNo",
          "type": "string"
        }
      ],
      "name": "createCertificate",
      "outputs": [
        {
          "internalType": "bool",
          "name": "",
          "type": "bool"
        }
      ],
      "stateMutability": "nonpayable",
      "type": "function"
    },
    {
      "inputs": [
        {
          "internalType": "string",
          "name": "firstName",
          "type": "string"
        },
        {
          "internalType": "string",
          "name": "lastName",
          "type": "string"
        },
        {
          "internalType": "uint256",
          "name": "yearOfPassing",
          "type": "uint256"
        },
        {
          "internalType": "uint256",
          "name": "gpa",
          "type": "uint256"
        },
        {
          "internalType": "string",
          "name": "rollNo",
          "type": "string"
        }
      ],
      "name": "updateCertificate",
      "outputs": [
        {
          "internalType": "bool",
          "name": "",
          "type": "bool"
        }
      ],
      "stateMutability": "nonpayable",
      "type": "function"
    },
    {
      "inputs": [
        {
          "internalType": "string",
          "name": "rollNo",
          "type": "string"
        }
      ],
      "name": "showCertificate",
      "outputs": [
        {
          "components": [
            {
              "internalType": "string",
              "name": "firstName",
              "type": "string"
            },
            {
              "internalType": "string",
              "name": "lastName",
              "type": "string"
            },
            {
              "internalType": "uint256",
              "name": "yearOfPassing",
              "type": "uint256"
            },
            {
              "internalType": "uint256",
              "name": "gpa",
              "type": "uint256"
            },
            {
              "internalType": "uint256",
              "name": "index",
              "type": "uint256"
            }
          ],
          "internalType": "struct Cert.Certificate",
          "name": "",
          "type": "tuple"
        }
      ],
      "stateMutability": "view",
      "type": "function",
      "constant": true
    }
  ],
  "bytecode": "0x608060405234801561001057600080fd5b50611237806100206000396000f3fe608060405234801561001057600080fd5b50600436106100415760003560e01c80631a91ec8314610046578063613187c414610076578063ae97da6a146100a6575b600080fd5b610060600480360381019061005b91906108a6565b6100d6565b60405161006d9190610a04565b60405180910390f35b610090600480360381019061008b9190610a52565b61029d565b60405161009d9190610b3c565b60405180910390f35b6100c060048036038101906100bb9190610a52565b6104d5565b6040516100cd9190610b3c565b60405180910390f35b6100de61071d565b6100e7826106a1565b610126576040517f08c379a000000000000000000000000000000000000000000000000000000000815260040161011d90610bb4565b60405180910390fd5b600080836040516101379190610c10565b90815260200160405180910390206040518060a001604052908160008201805461016090610c56565b80601f016020809104026020016040519081016040528092919081815260200182805461018c90610c56565b80156101d95780601f106101ae576101008083540402835291602001916101d9565b820191906000526020600020905b8154815290600101906020018083116101bc57829003601f168201915b505050505081526020016001820180546101f290610c56565b80601f016020809104026020016040519081016040528092919081815260200182805461021e90610c56565b801561026b5780601f106102405761010080835404028352916020019161026b565b820191906000526020600020905b81548152906001019060200180831161024e57829003601f168201915b505050505081526020016002820154815260200160038201548152602001600482015481525050905080915050919050565b6000808651116102e2576040517f08c379a00000000000000000000000000000000000000000000000000000000081526004016102d990610cd3565b60405180910390fd5b6000855111610326576040517f08c379a000000000000000000000000000000000000000000000000000000000815260040161031d90610d3f565b60405180910390fd5b600082511161036a576040517f08c379a000000000000000000000000000000000000000000000000000000000815260040161036190610dab565b60405180910390fd5b610373826106a1565b156103b3576040517f08c379a00000000000000000000000000000000000000000000000000000000081526004016103aa90610e17565b60405180910390fd5b856000836040516103c49190610c10565b908152602001604051809103902060000190816103e19190610fe3565b50846000836040516103f39190610c10565b908152602001604051809103902060010190816104109190610fe3565b50836000836040516104229190610c10565b908152602001604051809103902060020181905550826000836040516104489190610c10565b9081526020016040518091039020600301819055506001829080600181540180825580915050600190039060005260206000200160009091909190915090816104919190610fe3565b50600180805490506104a391906110e4565b6000836040516104b39190610c10565b9081526020016040518091039020600401819055506001905095945050505050565b60008086511161051a576040517f08c379a000000000000000000000000000000000000000000000000000000000815260040161051190610cd3565b60405180910390fd5b600085511161055e576040517f08c379a000000000000000000000000000000000000000000000000000000000815260040161055590610d3f565b60405180910390fd5b60008251116105a2576040517f08c379a000000000000000000000000000000000000000000000000000000000815260040161059990610dab565b60405180910390fd5b6105ab826106a1565b6105ea576040517f08c379a00000000000000000000000000000000000000000000000000000000081526004016105e190610bb4565b60405180910390fd5b856000836040516105fb9190610c10565b908152602001604051809103902060000190816106189190610fe3565b508460008360405161062a9190610c10565b908152602001604051809103902060010190816106479190610fe3565b50836000836040516106599190610c10565b9081526020016040518091039020600201819055508260008360405161067f9190610c10565b9081526020016040518091039020600301819055506001905095945050505050565b600080600180549050036106b85760009050610718565b818051906020012060016000846040516106d29190610c10565b908152602001604051809103902060040154815481106106f5576106f4611118565b5b9060005260206000200160405161070c91906111ea565b60405180910390201490505b919050565b6040518060a0016040528060608152602001606081526020016000815260200160008152602001600081525090565b6000604051905090565b600080fd5b600080fd5b600080fd5b600080fd5b6000601f19601f8301169050919050565b7f4e487b7100000000000000000000000000000000000000000000000000000000600052604160045260246000fd5b6107b38261076a565b810181811067ffffffffffffffff821117156107d2576107d161077b565b5b80604052505050565b60006107e561074c565b90506107f182826107aa565b919050565b600067ffffffffffffffff8211156108115761081061077b565b5b61081a8261076a565b9050602081019050919050565b82818337600083830152505050565b6000610849610844846107f6565b6107db565b90508281526020810184848401111561086557610864610765565b5b610870848285610827565b509392505050565b600082601f83011261088d5761088c610760565b5b813561089d848260208601610836565b91505092915050565b6000602082840312156108bc576108bb610756565b5b600082013567ffffffffffffffff8111156108da576108d961075b565b5b6108e684828501610878565b91505092915050565b600081519050919050565b600082825260208201905092915050565b60005b8381101561092957808201518184015260208101905061090e565b60008484015250505050565b6000610940826108ef565b61094a81856108fa565b935061095a81856020860161090b565b6109638161076a565b840191505092915050565b6000819050919050565b6109818161096e565b82525050565b600060a08301600083015184820360008601526109a48282610935565b915050602083015184820360208601526109be8282610935565b91505060408301516109d36040860182610978565b5060608301516109e66060860182610978565b5060808301516109f96080860182610978565b508091505092915050565b60006020820190508181036000830152610a1e8184610987565b905092915050565b610a2f8161096e565b8114610a3a57600080fd5b50565b600081359050610a4c81610a26565b92915050565b600080600080600060a08688031215610a6e57610a6d610756565b5b600086013567ffffffffffffffff811115610a8c57610a8b61075b565b5b610a9888828901610878565b955050602086013567ffffffffffffffff811115610ab957610ab861075b565b5b610ac588828901610878565b9450506040610ad688828901610a3d565b9350506060610ae788828901610a3d565b925050608086013567ffffffffffffffff811115610b0857610b0761075b565b5b610b1488828901610878565b9150509295509295909350565b60008115159050919050565b610b3681610b21565b82525050565b6000602082019050610b516000830184610b2d565b92915050565b600082825260208201905092915050565b7f53747564656e7420646f6573206e6f7420657869737400000000000000000000600082015250565b6000610b9e601683610b57565b9150610ba982610b68565b602082019050919050565b60006020820190508181036000830152610bcd81610b91565b9050919050565b600081905092915050565b6000610bea826108ef565b610bf48185610bd4565b9350610c0481856020860161090b565b80840191505092915050565b6000610c1c8284610bdf565b915081905092915050565b7f4e487b7100000000000000000000000000000000000000000000000000000000600052602260045260246000fd5b60006002820490506001821680610c6e57607f821691505b602082108103610c8157610c80610c27565b5b50919050565b7f4669727374204e616d652063616e6e6f7420626520656d707479000000000000600082015250565b6000610cbd601a83610b57565b9150610cc882610c87565b602082019050919050565b60006020820190508181036000830152610cec81610cb0565b9050919050565b7f4c617374204e616d652063616e6e6f7420626520656d70747900000000000000600082015250565b6000610d29601983610b57565b9150610d3482610cf3565b602082019050919050565b60006020820190508181036000830152610d5881610d1c565b9050919050565b7f526f6c6c204e756d6265722063616e6e6f7420626520656d7074790000000000600082015250565b6000610d95601b83610b57565b9150610da082610d5f565b602082019050919050565b60006020820190508181036000830152610dc481610d88565b9050919050565b7f6475706c69636174650000000000000000000000000000000000000000000000600082015250565b6000610e01600983610b57565b9150610e0c82610dcb565b602082019050919050565b60006020820190508181036000830152610e3081610df4565b9050919050565b60008190508160005260206000209050919050565b60006020601f8301049050919050565b600082821b905092915050565b600060088302610e997fffffffffffffffffffffffffffffffffffffffffffffffffffffffffffffffff82610e5c565b610ea38683610e5c565b95508019841693508086168417925050509392505050565b6000819050919050565b6000610ee0610edb610ed68461096e565b610ebb565b61096e565b9050919050565b6000819050919050565b610efa83610ec5565b610f0e610f0682610ee7565b848454610e69565b825550505050565b600090565b610f23610f16565b610f2e818484610ef1565b505050565b5b81811015610f5257610f47600082610f1b565b600181019050610f34565b5050565b601f821115610f9757610f6881610e37565b610f7184610e4c565b81016020851015610f80578190505b610f94610f8c85610e4c565b830182610f33565b50505b505050565b600082821c905092915050565b6000610fba60001984600802610f9c565b1980831691505092915050565b6000610fd38383610fa9565b9150826002028217905092915050565b610fec826108ef565b67ffffffffffffffff8111156110055761100461077b565b5b61100f8254610c56565b61101a828285610f56565b600060209050601f83116001811461104d576000841561103b578287015190505b6110458582610fc7565b8655506110ad565b601f19841661105b86610e37565b60005b828110156110835784890151825560018201915060208501945060208101905061105e565b868310156110a0578489015161109c601f891682610fa9565b8355505b6001600288020188555050505b505050505050565b7f4e487b7100000000000000000000000000000000000000000000000000000000600052601160045260246000fd5b60006110ef8261096e565b91506110fa8361096e565b9250828203905081811115611112576111116110b5565b5b92915050565b7f4e487b7100000000000000000000000000000000000000000000000000000000600052603260045260246000fd5b600081905092915050565b60008190508160005260206000209050919050565b6000815461117481610c56565b61117e8186611147565b9450600182166000811461119957600181146111ae576111e1565b60ff19831686528115158202860193506111e1565b6111b785611152565b60005b838110156111d9578154818901526001820191506020810190506111ba565b838801955050505b50505092915050565b60006111f68284611167565b91508190509291505056fea2646970667358221220f63771a4bb180a6a8cb0549ad72c7a6bad2f90249013f2792a124a4a372259f564736f6c63430008110033",
  "immutableReferences": {},
  "source": "pragma solidity ^0.8.17;\n\ncontract Cert {\n    struct Certificate {\n        string firstName;\n        string lastName;\n        uint256 yearOfPassing;\n        uint256 gpa;\n        uint256 index;\n    }\n\n    // certificates are mapped to roll numbers\n    mapping(string => Certificate) private certificates;\n\n    // helps us know if a particular key exists or not\n    string[] private certificateKeys;\n\n    function studentALreadyExists(\n        string memory rollNo\n    ) internal view returns (bool) {\n        if (certificateKeys.length == 0) return false;\n        return (keccak256(bytes(certificateKeys[certificates[rollNo].index])) ==\n            keccak256(bytes(rollNo)));\n    }\n\n    function createCertificate(\n        string memory firstName,\n        string memory lastName,\n        uint256 yearOfPassing,\n        uint256 gpa,\n        string memory rollNo\n    ) external returns (bool) {\n        require(bytes(firstName).length > 0, \"First Name cannot be empty\");\n        require(bytes(lastName).length > 0, \"Last Name cannot be empty\");\n        require(bytes(rollNo).length > 0, \"Roll Number cannot be empty\");\n\n        if (studentALreadyExists(rollNo)) revert(\"duplicate\");\n        certificates[rollNo].firstName = firstName;\n        certificates[rollNo].lastName = lastName;\n        certificates[rollNo].yearOfPassing = yearOfPassing;\n        certificates[rollNo].gpa = gpa;\n\n        certificateKeys.push(rollNo);\n        certificates[rollNo].index = certificateKeys.length - 1;\n\n        return true;\n    }\n\n    function updateCertificate(\n        string memory firstName,\n        string memory lastName,\n        uint256 yearOfPassing,\n        uint256 gpa,\n        string memory rollNo\n    ) external returns (bool) {\n        require(bytes(firstName).length > 0, \"First Name cannot be empty\");\n        require(bytes(lastName).length > 0, \"Last Name cannot be empty\");\n        require(bytes(rollNo).length > 0, \"Roll Number cannot be empty\");\n\n        if (!studentALreadyExists(rollNo)) revert(\"Student does not exist\");\n        certificates[rollNo].firstName = firstName;\n        certificates[rollNo].lastName = lastName;\n        certificates[rollNo].yearOfPassing = yearOfPassing;\n        certificates[rollNo].gpa = gpa;\n\n        return true;\n    }\n\n    function showCertificate(\n        string memory rollNo\n    ) external view returns (Certificate memory) {\n        if (!studentALreadyExists(rollNo)) revert(\"Student does not exist\");\n        Certificate memory c = certificates[rollNo];\n        return c;\n    }\n}\n\n// https://dev.to/daltonic/how-to-code-solidity-smart-contract-crud-functions-the-right-way-3h31\n",
  "sourcePath": "/home/dearsh/e_certificate/smart_contracts/contracts/Cert.sol",
  "compiler": {
    "name": "solc",
    "version": "0.8.17+commit.8df45f5f.Emscripten.clang"
  },
  "schemaVersion": "3.4.13",
  "updatedAt": "2023-03-12T04:21:42.977Z",
  "networkType": "ethereum",
  "devdoc": {
    "kind": "dev",
    "methods": {},
    "version": 1
  },
  "userdoc": {
    "kind": "user",
    "methods": {},
    "version": 1
  }
}