{
  "contractName": "Cert",
  "abi": [
    {
      "anonymous": false,
      "inputs": [
        {
          "indexed": false,
          "internalType": "uint256",
          "name": "rollNo",
          "type": "uint256"
        },
        {
          "indexed": false,
          "internalType": "string",
          "name": "actionType",
          "type": "string"
        },
        {
          "indexed": false,
          "internalType": "uint256",
          "name": "created",
          "type": "uint256"
        }
      ],
      "name": "Action",
      "type": "event"
    },
    {
      "inputs": [
        {
          "internalType": "string",
          "name": "firstName",
          "type": "string"
        },
        {
          "internalType": "string",
          "name": "lastName",
          "type": "string"
        },
        {
          "internalType": "uint256",
          "name": "yearOfPassing",
          "type": "uint256"
        },
        {
          "internalType": "uint256",
          "name": "gpa",
          "type": "uint256"
        },
        {
          "internalType": "string",
          "name": "rollNo",
          "type": "string"
        }
      ],
      "name": "createCertificate",
      "outputs": [
        {
          "internalType": "bool",
          "name": "",
          "type": "bool"
        }
      ],
      "stateMutability": "nonpayable",
      "type": "function"
    },
    {
      "inputs": [
        {
          "internalType": "string",
          "name": "firstName",
          "type": "string"
        },
        {
          "internalType": "string",
          "name": "lastName",
          "type": "string"
        },
        {
          "internalType": "uint256",
          "name": "yearOfPassing",
          "type": "uint256"
        },
        {
          "internalType": "uint256",
          "name": "gpa",
          "type": "uint256"
        },
        {
          "internalType": "string",
          "name": "rollNo",
          "type": "string"
        }
      ],
      "name": "updateCertificate",
      "outputs": [
        {
          "internalType": "bool",
          "name": "",
          "type": "bool"
        }
      ],
      "stateMutability": "nonpayable",
      "type": "function"
    },
    {
      "inputs": [
        {
          "internalType": "string",
          "name": "rollNo",
          "type": "string"
        }
      ],
      "name": "showCertificate",
      "outputs": [
        {
          "components": [
            {
              "internalType": "string",
              "name": "firstName",
              "type": "string"
            },
            {
              "internalType": "string",
              "name": "lastName",
              "type": "string"
            },
            {
              "internalType": "uint256",
              "name": "yearOfPassing",
              "type": "uint256"
            },
            {
              "internalType": "uint256",
              "name": "gpa",
              "type": "uint256"
            },
            {
              "internalType": "uint256",
              "name": "index",
              "type": "uint256"
            }
          ],
          "internalType": "struct Cert.Certificate",
          "name": "",
          "type": "tuple"
        }
      ],
      "stateMutability": "view",
      "type": "function",
      "constant": true
    }
  ],
  "bytecode": "0x608060405234801561001057600080fd5b50611328806100206000396000f3fe608060405234801561001057600080fd5b50600436106100415760003560e01c80631a91ec8314610046578063613187c414610076578063ae97da6a146100a6575b600080fd5b610060600480360381019061005b9190610900565b6100d6565b60405161006d9190610a5e565b60405180910390f35b610090600480360381019061008b9190610aac565b61029d565b60405161009d9190610b96565b60405180910390f35b6100c060048036038101906100bb9190610aac565b61052f565b6040516100cd9190610b96565b60405180910390f35b6100de610777565b6100e7826106fb565b610126576040517f08c379a000000000000000000000000000000000000000000000000000000000815260040161011d90610c0e565b60405180910390fd5b600080836040516101379190610c6a565b90815260200160405180910390206040518060a001604052908160008201805461016090610cb0565b80601f016020809104026020016040519081016040528092919081815260200182805461018c90610cb0565b80156101d95780601f106101ae576101008083540402835291602001916101d9565b820191906000526020600020905b8154815290600101906020018083116101bc57829003601f168201915b505050505081526020016001820180546101f290610cb0565b80601f016020809104026020016040519081016040528092919081815260200182805461021e90610cb0565b801561026b5780601f106102405761010080835404028352916020019161026b565b820191906000526020600020905b81548152906001019060200180831161024e57829003601f168201915b505050505081526020016002820154815260200160038201548152602001600482015481525050905080915050919050565b6000808651116102e2576040517f08c379a00000000000000000000000000000000000000000000000000000000081526004016102d990610d2d565b60405180910390fd5b6000855111610326576040517f08c379a000000000000000000000000000000000000000000000000000000000815260040161031d90610d99565b60405180910390fd5b600082511161036a576040517f08c379a000000000000000000000000000000000000000000000000000000000815260040161036190610e05565b60405180910390fd5b610373826106fb565b156103b3576040517f08c379a00000000000000000000000000000000000000000000000000000000081526004016103aa90610e71565b60405180910390fd5b856000836040516103c49190610c6a565b908152602001604051809103902060000190816103e1919061103d565b50846000836040516103f39190610c6a565b90815260200160405180910390206001019081610410919061103d565b50836000836040516104229190610c6a565b908152602001604051809103902060020181905550826000836040516104489190610c6a565b908152602001604051809103902060030181905550600182908060018154018082558091505060019003906000526020600020016000909190919091509081610491919061103d565b50600180805490506104a3919061113e565b6000836040516104b39190610c6a565b9081526020016040518091039020600401819055507f95911b40789cc581536a1785e4381cf19de96a7cfe1d2ace7b745903e887b1446000836040516104f99190610c6a565b9081526020016040518091039020600401544260405161051a9291906111cd565b60405180910390a16001905095945050505050565b600080865111610574576040517f08c379a000000000000000000000000000000000000000000000000000000000815260040161056b90610d2d565b60405180910390fd5b60008551116105b8576040517f08c379a00000000000000000000000000000000000000000000000000000000081526004016105af90610d99565b60405180910390fd5b60008251116105fc576040517f08c379a00000000000000000000000000000000000000000000000000000000081526004016105f390610e05565b60405180910390fd5b610605826106fb565b610644576040517f08c379a000000000000000000000000000000000000000000000000000000000815260040161063b90610c0e565b60405180910390fd5b856000836040516106559190610c6a565b90815260200160405180910390206000019081610672919061103d565b50846000836040516106849190610c6a565b908152602001604051809103902060010190816106a1919061103d565b50836000836040516106b39190610c6a565b908152602001604051809103902060020181905550826000836040516106d99190610c6a565b9081526020016040518091039020600301819055506001905095945050505050565b600080600180549050036107125760009050610772565b8180519060200120600160008460405161072c9190610c6a565b9081526020016040518091039020600401548154811061074f5761074e611209565b5b9060005260206000200160405161076691906112db565b60405180910390201490505b919050565b6040518060a0016040528060608152602001606081526020016000815260200160008152602001600081525090565b6000604051905090565b600080fd5b600080fd5b600080fd5b600080fd5b6000601f19601f8301169050919050565b7f4e487b7100000000000000000000000000000000000000000000000000000000600052604160045260246000fd5b61080d826107c4565b810181811067ffffffffffffffff8211171561082c5761082b6107d5565b5b80604052505050565b600061083f6107a6565b905061084b8282610804565b919050565b600067ffffffffffffffff82111561086b5761086a6107d5565b5b610874826107c4565b9050602081019050919050565b82818337600083830152505050565b60006108a361089e84610850565b610835565b9050828152602081018484840111156108bf576108be6107bf565b5b6108ca848285610881565b509392505050565b600082601f8301126108e7576108e66107ba565b5b81356108f7848260208601610890565b91505092915050565b600060208284031215610916576109156107b0565b5b600082013567ffffffffffffffff811115610934576109336107b5565b5b610940848285016108d2565b91505092915050565b600081519050919050565b600082825260208201905092915050565b60005b83811015610983578082015181840152602081019050610968565b60008484015250505050565b600061099a82610949565b6109a48185610954565b93506109b4818560208601610965565b6109bd816107c4565b840191505092915050565b6000819050919050565b6109db816109c8565b82525050565b600060a08301600083015184820360008601526109fe828261098f565b91505060208301518482036020860152610a18828261098f565b9150506040830151610a2d60408601826109d2565b506060830151610a4060608601826109d2565b506080830151610a5360808601826109d2565b508091505092915050565b60006020820190508181036000830152610a7881846109e1565b905092915050565b610a89816109c8565b8114610a9457600080fd5b50565b600081359050610aa681610a80565b92915050565b600080600080600060a08688031215610ac857610ac76107b0565b5b600086013567ffffffffffffffff811115610ae657610ae56107b5565b5b610af2888289016108d2565b955050602086013567ffffffffffffffff811115610b1357610b126107b5565b5b610b1f888289016108d2565b9450506040610b3088828901610a97565b9350506060610b4188828901610a97565b925050608086013567ffffffffffffffff811115610b6257610b616107b5565b5b610b6e888289016108d2565b9150509295509295909350565b60008115159050919050565b610b9081610b7b565b82525050565b6000602082019050610bab6000830184610b87565b92915050565b600082825260208201905092915050565b7f53747564656e7420646f6573206e6f7420657869737400000000000000000000600082015250565b6000610bf8601683610bb1565b9150610c0382610bc2565b602082019050919050565b60006020820190508181036000830152610c2781610beb565b9050919050565b600081905092915050565b6000610c4482610949565b610c4e8185610c2e565b9350610c5e818560208601610965565b80840191505092915050565b6000610c768284610c39565b915081905092915050565b7f4e487b7100000000000000000000000000000000000000000000000000000000600052602260045260246000fd5b60006002820490506001821680610cc857607f821691505b602082108103610cdb57610cda610c81565b5b50919050565b7f4669727374204e616d652063616e6e6f7420626520656d707479000000000000600082015250565b6000610d17601a83610bb1565b9150610d2282610ce1565b602082019050919050565b60006020820190508181036000830152610d4681610d0a565b9050919050565b7f4c617374204e616d652063616e6e6f7420626520656d70747900000000000000600082015250565b6000610d83601983610bb1565b9150610d8e82610d4d565b602082019050919050565b60006020820190508181036000830152610db281610d76565b9050919050565b7f526f6c6c204e756d6265722063616e6e6f7420626520656d7074790000000000600082015250565b6000610def601b83610bb1565b9150610dfa82610db9565b602082019050919050565b60006020820190508181036000830152610e1e81610de2565b9050919050565b7f6475706c69636174650000000000000000000000000000000000000000000000600082015250565b6000610e5b600983610bb1565b9150610e6682610e25565b602082019050919050565b60006020820190508181036000830152610e8a81610e4e565b9050919050565b60008190508160005260206000209050919050565b60006020601f8301049050919050565b600082821b905092915050565b600060088302610ef37fffffffffffffffffffffffffffffffffffffffffffffffffffffffffffffffff82610eb6565b610efd8683610eb6565b95508019841693508086168417925050509392505050565b6000819050919050565b6000610f3a610f35610f30846109c8565b610f15565b6109c8565b9050919050565b6000819050919050565b610f5483610f1f565b610f68610f6082610f41565b848454610ec3565b825550505050565b600090565b610f7d610f70565b610f88818484610f4b565b505050565b5b81811015610fac57610fa1600082610f75565b600181019050610f8e565b5050565b601f821115610ff157610fc281610e91565b610fcb84610ea6565b81016020851015610fda578190505b610fee610fe685610ea6565b830182610f8d565b50505b505050565b600082821c905092915050565b600061101460001984600802610ff6565b1980831691505092915050565b600061102d8383611003565b9150826002028217905092915050565b61104682610949565b67ffffffffffffffff81111561105f5761105e6107d5565b5b6110698254610cb0565b611074828285610fb0565b600060209050601f8311600181146110a75760008415611095578287015190505b61109f8582611021565b865550611107565b601f1984166110b586610e91565b60005b828110156110dd578489015182556001820191506020850194506020810190506110b8565b868310156110fa57848901516110f6601f891682611003565b8355505b6001600288020188555050505b505050505050565b7f4e487b7100000000000000000000000000000000000000000000000000000000600052601160045260246000fd5b6000611149826109c8565b9150611154836109c8565b925082820390508181111561116c5761116b61110f565b5b92915050565b61117b816109c8565b82525050565b7f504f535420435245415445440000000000000000000000000000000000000000600082015250565b60006111b7600c83610bb1565b91506111c282611181565b602082019050919050565b60006060820190506111e26000830185611172565b81810360208301526111f3816111aa565b90506112026040830184611172565b9392505050565b7f4e487b7100000000000000000000000000000000000000000000000000000000600052603260045260246000fd5b600081905092915050565b60008190508160005260206000209050919050565b6000815461126581610cb0565b61126f8186611238565b9450600182166000811461128a576001811461129f576112d2565b60ff19831686528115158202860193506112d2565b6112a885611243565b60005b838110156112ca578154818901526001820191506020810190506112ab565b838801955050505b50505092915050565b60006112e78284611258565b91508190509291505056fea26469706673582212208e11654146e45d7166417037a4485c30299c2b6e25778015e15c930d616c257664736f6c63430008110033",
  "immutableReferences": {},
  "source": "pragma solidity ^0.8.17;\n\ncontract Cert {\n    struct Certificate {\n        string firstName;\n        string lastName;\n        uint256 yearOfPassing;\n        uint256 gpa;\n        uint256 index;\n    }\n\n    event Action(uint256 rollNo, string actionType, uint256 created);\n\n    // certificates are mapped to roll numbers\n    mapping(string => Certificate) private certificates;\n\n    // helps us know if a particular key exists or not\n    string[] private certificateKeys;\n\n    function studentALreadyExists(\n        string memory rollNo\n    ) internal view returns (bool) {\n        if (certificateKeys.length == 0) return false;\n        return (keccak256(bytes(certificateKeys[certificates[rollNo].index])) ==\n            keccak256(bytes(rollNo)));\n    }\n\n    function createCertificate(\n        string memory firstName,\n        string memory lastName,\n        uint256 yearOfPassing,\n        uint256 gpa,\n        string memory rollNo\n    ) external returns (bool) {\n        require(bytes(firstName).length > 0, \"First Name cannot be empty\");\n        require(bytes(lastName).length > 0, \"Last Name cannot be empty\");\n        require(bytes(rollNo).length > 0, \"Roll Number cannot be empty\");\n\n        if (studentALreadyExists(rollNo)) revert(\"duplicate\");\n        certificates[rollNo].firstName = firstName;\n        certificates[rollNo].lastName = lastName;\n        certificates[rollNo].yearOfPassing = yearOfPassing;\n        certificates[rollNo].gpa = gpa;\n\n        certificateKeys.push(rollNo);\n        certificates[rollNo].index = certificateKeys.length - 1;\n\n        emit Action(\n            certificates[rollNo].index,\n            \"POST CREATED\",\n            block.timestamp\n        );\n\n        return true;\n    }\n\n    function updateCertificate(\n        string memory firstName,\n        string memory lastName,\n        uint256 yearOfPassing,\n        uint256 gpa,\n        string memory rollNo\n    ) external returns (bool) {\n        require(bytes(firstName).length > 0, \"First Name cannot be empty\");\n        require(bytes(lastName).length > 0, \"Last Name cannot be empty\");\n        require(bytes(rollNo).length > 0, \"Roll Number cannot be empty\");\n\n        if (!studentALreadyExists(rollNo)) revert(\"Student does not exist\");\n        certificates[rollNo].firstName = firstName;\n        certificates[rollNo].lastName = lastName;\n        certificates[rollNo].yearOfPassing = yearOfPassing;\n        certificates[rollNo].gpa = gpa;\n\n        return true;\n    }\n\n    function showCertificate(\n        string memory rollNo\n    ) external view returns (Certificate memory) {\n        if (!studentALreadyExists(rollNo)) revert(\"Student does not exist\");\n        Certificate memory c = certificates[rollNo];\n        return c;\n    }\n}\n\n// https://dev.to/daltonic/how-to-code-solidity-smart-contract-crud-functions-the-right-way-3h31\n",
  "sourcePath": "/home/dearsh/e_certificate/smart_contracts/contracts/Cert.sol",
  "compiler": {
    "name": "solc",
    "version": "0.8.17+commit.8df45f5f.Emscripten.clang"
  },
  "schemaVersion": "3.4.13",
  "updatedAt": "2023-03-12T11:35:36.215Z",
  "networkType": "ethereum",
  "devdoc": {
    "kind": "dev",
    "methods": {},
    "version": 1
  },
  "userdoc": {
    "kind": "user",
    "methods": {},
    "version": 1
  }
}